{
  "_format": "hh-sol-artifact-1",
  "contractName": "DiceGame",
  "sourceName": "contracts/DiceGame.sol",
  "abi": [
    {
      "anonymous": false,
      "inputs": [
        {
          "indexed": true,
          "internalType": "address",
          "name": "player",
          "type": "address"
        },
        {
          "indexed": false,
          "internalType": "bytes32",
          "name": "commitment",
          "type": "bytes32"
        }
      ],
      "name": "Commit",
      "type": "event"
    },
    {
      "anonymous": false,
      "inputs": [
        {
          "indexed": true,
          "internalType": "address",
          "name": "player",
          "type": "address"
        },
        {
          "indexed": false,
          "internalType": "uint8",
          "name": "roll",
          "type": "uint8"
        },
        {
          "indexed": false,
          "internalType": "string",
          "name": "seed",
          "type": "string"
        }
      ],
      "name": "Reveal",
      "type": "event"
    },
    {
      "inputs": [
        {
          "internalType": "bytes32",
          "name": "_commitment",
          "type": "bytes32"
        }
      ],
      "name": "commit",
      "outputs": [],
      "stateMutability": "nonpayable",
      "type": "function"
    },
    {
      "inputs": [
        {
          "internalType": "address",
          "name": "",
          "type": "address"
        }
      ],
      "name": "games",
      "outputs": [
        {
          "internalType": "bytes32",
          "name": "commitment",
          "type": "bytes32"
        },
        {
          "internalType": "bool",
          "name": "revealed",
          "type": "bool"
        }
      ],
      "stateMutability": "view",
      "type": "function"
    },
    {
      "inputs": [
        {
          "internalType": "string",
          "name": "_seed",
          "type": "string"
        }
      ],
      "name": "reveal",
      "outputs": [],
      "stateMutability": "nonpayable",
      "type": "function"
    }
  ],
  "bytecode": "0x608060405234801561001057600080fd5b50610a56806100206000396000f3fe608060405234801561001057600080fd5b50600436106100415760003560e01c80634c2612471461004657806379131a1914610062578063f14fcbc814610093575b600080fd5b610060600480360381019061005b919061054c565b6100af565b005b61007c600480360381019061007791906105f3565b610267565b60405161008a929190610654565b60405180910390f35b6100ad60048036038101906100a891906106a9565b610298565b005b60008060003373ffffffffffffffffffffffffffffffffffffffff1673ffffffffffffffffffffffffffffffffffffffff16815260200190815260200160002090508060010160009054906101000a900460ff1615610143576040517f08c379a000000000000000000000000000000000000000000000000000000000815260040161013a90610733565b60405180910390fd5b8160405160200161015491906107c4565b604051602081830303815290604052805190602001208160000154146101af576040517f08c379a00000000000000000000000000000000000000000000000000000000081526004016101a690610827565b60405180910390fd5b60018160010160006101000a81548160ff021916908315150217905550600060016006846040516020016101e391906107c4565b6040516020818303038152906040528051906020012060001c6102069190610880565b61021091906108e0565b90503373ffffffffffffffffffffffffffffffffffffffff167f34053229022ec5109843012beb3f30272daf91a6eb9e4910b4077aa98c8d38d2828560405161025a929190610969565b60405180910390a2505050565b60006020528060005260406000206000915090508060000154908060010160009054906101000a900460ff16905082565b6000801b6000803373ffffffffffffffffffffffffffffffffffffffff1673ffffffffffffffffffffffffffffffffffffffff168152602001908152602001600020600001541461031e576040517f08c379a0000000000000000000000000000000000000000000000000000000008152600401610315906109e5565b60405180910390fd5b6040518060400160405280828152602001600015158152506000803373ffffffffffffffffffffffffffffffffffffffff1673ffffffffffffffffffffffffffffffffffffffff1681526020019081526020016000206000820151816000015560208201518160010160006101000a81548160ff0219169083151502179055509050503373ffffffffffffffffffffffffffffffffffffffff167f0b6cc2ecff3b94112d44f2dbac8aee8eb02772c07b1e52605f0dc6d726bf0e31826040516103e79190610a05565b60405180910390a250565b6000604051905090565b600080fd5b600080fd5b600080fd5b600080fd5b6000601f19601f8301169050919050565b7f4e487b7100000000000000000000000000000000000000000000000000000000600052604160045260246000fd5b61045982610410565b810181811067ffffffffffffffff8211171561047857610477610421565b5b80604052505050565b600061048b6103f2565b90506104978282610450565b919050565b600067ffffffffffffffff8211156104b7576104b6610421565b5b6104c082610410565b9050602081019050919050565b82818337600083830152505050565b60006104ef6104ea8461049c565b610481565b90508281526020810184848401111561050b5761050a61040b565b5b6105168482856104cd565b509392505050565b600082601f83011261053357610532610406565b5b81356105438482602086016104dc565b91505092915050565b600060208284031215610562576105616103fc565b5b600082013567ffffffffffffffff8111156105805761057f610401565b5b61058c8482850161051e565b91505092915050565b600073ffffffffffffffffffffffffffffffffffffffff82169050919050565b60006105c082610595565b9050919050565b6105d0816105b5565b81146105db57600080fd5b50565b6000813590506105ed816105c7565b92915050565b600060208284031215610609576106086103fc565b5b6000610617848285016105de565b91505092915050565b6000819050919050565b61063381610620565b82525050565b60008115159050919050565b61064e81610639565b82525050565b6000604082019050610669600083018561062a565b6106766020830184610645565b9392505050565b61068681610620565b811461069157600080fd5b50565b6000813590506106a38161067d565b92915050565b6000602082840312156106bf576106be6103fc565b5b60006106cd84828501610694565b91505092915050565b600082825260208201905092915050565b7f416c72656164792072657665616c656400000000000000000000000000000000600082015250565b600061071d6010836106d6565b9150610728826106e7565b602082019050919050565b6000602082019050818103600083015261074c81610710565b9050919050565b600081519050919050565b600081905092915050565b60005b8381101561078757808201518184015260208101905061076c565b60008484015250505050565b600061079e82610753565b6107a8818561075e565b93506107b8818560208601610769565b80840191505092915050565b60006107d08284610793565b915081905092915050565b7f496e76616c696420736565640000000000000000000000000000000000000000600082015250565b6000610811600c836106d6565b915061081c826107db565b602082019050919050565b6000602082019050818103600083015261084081610804565b9050919050565b6000819050919050565b7f4e487b7100000000000000000000000000000000000000000000000000000000600052601260045260246000fd5b600061088b82610847565b915061089683610847565b9250826108a6576108a5610851565b5b828206905092915050565b7f4e487b7100000000000000000000000000000000000000000000000000000000600052601160045260246000fd5b60006108eb82610847565b91506108f683610847565b925082820190508082111561090e5761090d6108b1565b5b92915050565b600060ff82169050919050565b61092a81610914565b82525050565b600061093b82610753565b61094581856106d6565b9350610955818560208601610769565b61095e81610410565b840191505092915050565b600060408201905061097e6000830185610921565b81810360208301526109908184610930565b90509392505050565b7f416c726561647920636f6d6d6974746564000000000000000000000000000000600082015250565b60006109cf6011836106d6565b91506109da82610999565b602082019050919050565b600060208201905081810360008301526109fe816109c2565b9050919050565b6000602082019050610a1a600083018461062a565b9291505056fea26469706673582212204eec7574edd76da351ea156cdf558b81ee1e2ca3933a02310c9eb695b8c1e64364736f6c63430008120033",
  "linkReferences": {},
  "deployedLinkReferences": {}
}